:100000000C9497030C94DE030C94DE030C94DE0333
:100010000C94DE030C94DE030C94DE030C94DE03DC
:100020000C94DE030C94DE030C94BE280C949029EF
:100030000C94181F0C94DE030C94DE030C94DE0366
:100040000C94DE030C94DE030C94DE030C94DE03AC
:100050000C94DE030C94801F0C94DE030C94DE03DE
:100060000C94DE030C94DE030C94DE030C94DE038C
:100070000C94DE030C94DE030C94DE030C94DE037C
:100080000C94DE030C94DE030C94DE030C94DE036C
:100090000C94DE030C94DE030C94DE030C94DE035C
:1000A0000C94DE030C94DE030C94DE034A054C052D
:1000B00057054E05500552055405560559055B0573
:1000C0005D0568055F0561056305650567056A05EA
:1000D000A514A514D714D71415153515BE16BE16BC
:1000E0007715BE16181618168A169316BE16B7166A
:1000F0002516251625162516251625162516251628
:100100002516251625162516251625162516251617
:10011000361644164B1652165C164D174D175F17C0
:100120005F1756175F175F175F174D174D175B1750
:100130005F175F175B17FD29242A162B242A162B1D
:10014000702A932A162BE92AF82A165C1E001F0033
:100150002000210022002300240025002600270083
:100160002D002E002A004C002B00000014001A0065
:100170000800150017001C0018000C0012001300E6
:100180002F0030003100015100000400160007006C
:1001900009000A000B000D000E000F0033003400B0
:1001A00028000000E10031001D001B0006001900BE
:1001B00005001100100036003700000038725200B0
:1001C0003800E000E3000000E2002C0000002C00FA
:1001D00000002C000000E6000251500051004F00CA
:1001E00029003A003B003C003D003E003F0040003B
:1001F000410042004300440045004600000000006A
:1002000000000000000000000000000000000000EE
:100210000000000000000000000049000100000094
:1002200000000000000000000000000000000000CE
:1002300000000000000000000000000000000000BE
:1002400000000000000000000000000000000000AE
:10025000000000004B000000000000000000000053
:10026000000000000000000000000000000000008E
:100270004A004E004D002901035300000000000019
:10028000000000005F00600061000000000000004E
:10029000A8000000000000000000000000000000B6
:1002A000000000005C005D005E0000000000000037
:1002B0000000390000000000000000000000000005
:1002C000000059005A005B000000000058000000C8
:1002D000E10000000000000000000000000000003D
:1002E00027003600370000000000A90000000000D1
:1002F00000000000000000000000AE000000000050
:10030000000000000100AC00AA00AB000000035395
:1003100000000000000000000000000000000000DD
:100320000000CC5CCB5C0000000000000000C25C60
:10033000C95C00000000000000000000C75C000075
:10034000000000000000000000000000C45CCA5C67
:10035000C35C000000000000C65CC85CC55C000017
:10036000000000000000000000000000000000008D
:10037000000000000000000000000000000000007D
:10038000000000000000000000000000000000006D
:10039000000000000000000000000000000000005D
:1003A000000000047F3F1F643214643214783C1E46
:1003B0001E140A052223252628292A2C2D2F303207
:1003C000333536383A3B3D3E4042434547494A4C37
:1003D0004E5051535557595A5C5E60626466686965
:1003E0006B6D6F71737577797B7D7F81838587896D
:1003F0008A8C8E90929496989A9C9E9FA1A3A5A772
:10040000A8AAACAEAFB1B3B4B6B8B9BBBCBEBFC19D
:10041000C2C3C5C6C7C9CACBCCCDCED0D1D2D2D328
:10042000D4D5D6D7D7D8D9D9DADADBDBDBDCDCDC3C
:10043000DCDCDDDDDDDDDCDCDCDCDCDBDBDBDADAFF
:10044000D9D9D8D7D7D6D5D4D3D2D2D1D0CECDCC76
:10045000CBCAC9C7C6C5C3C2C1BFBEBCBBB9B8B68B
:10046000B4B3B1AFAEACAAA8A7A5A3A19F9E9C9A16
:1004700098969492908E8C8A89878583817F7D7BE4
:1004800079777573716F6D6B6968666462605E5CC5
:100490005A5957555351504E4C4A4947454342408B
:1004A0003E3D3B3A3836353332302F2D2C2A292821
:1004B00026252322FFAA7F554000000000000000EF
:1004C000000000010101010101010101020202021B
:1004D00002020202030303030303030404040404EB
:1004E00005050505050606060606070707070808A9
:1004F00008080909090A0A0A0B0B0B0C0C0C0D0D54
:100500000D0E0E0E0F0F10101011111212131314E6
:1005100014151516161717181819191A1A1B1C1C5A
:100520001D1D1E1F1F2021212223232425252627B0
:100530002828292A2B2C2C2D2E2F303131323334E0
:1005400035363738393A3B3C3D3E3F4041424344E3
:1005500045464748494B4C4D4E4F505253545557C2
:1005600058595A5C5D5E606163646567686A6B6C6C
:100570006E6F7172747677797A7C7D7F81828486E2
:1005800087898B8D8E9092949597999B9D9FA1A220
:10059000A4A6A8AAACAEB0B2B4B6B9BBBDBFC1C325
:1005A000C5C8CACCCED0D3D5D7DADCDEE1E3E6E8E5
:1005B000EAEDEFF2F4F7F9FCFF0403300000000A63
:1005C0000344005A0036003000000010034B004284
:1005D000004400460061006E00730000000403093F
:1005E0000409023B00020100A0FA09040000010313
:1005F00001010009211101000122400007058103CA
:1006000008000A090401000103000000092111018A
:10061000000122C0000705820320000A1201100118
:1006200000000008EDFE6022010001020301050147
:100630000902A10185020901A10005091901290585
:10064000150025019505750181029501750381014C
:100650000501093009311581257F9502750881064C
:1006600009381581257F950175088106050C0A3822
:10067000021581257F950175088106C0C005010915
:1006800080A10185031601002603001A81002A8338
:1006900000751095018100C0050C0901A1018504B8
:1006A000160100269C021A01002A9C027510950171
:1006B0008100C005010906A1018505050719E0298A
:1006C000E715002501950875018102050819012922
:1006D00005950575019102950175039101050719AD
:1006E0000029EF1500250195F075018102C0050173
:1006F0000906A101050719E029E71500250195085C
:100700007501810295017508810105081901290506
:100710009505750191029501750391010507190071
:1007200029FF150026FF00950675088100C01124D9
:100730001FBECFEFDAE0DEBFCDBF04B603FE27C099
:100740008091A8029091A902A091AA02B091AB0257
:100750008730904BA740B04BD1F41092A802109272
:10076000A9021092AA021092AB0214BE84B7877F2E
:1007700084BF0FB6F894A89580916000886180933B
:100780006000109260000FBEE0E0F8E3099511E010
:10079000A0E0B1E0E6E3F8E502C005900D92AC35CB
:1007A000B107D9F722E0ACE5B1E001C01D92A83A4B
:1007B000B207E1F70E94E0250C94192C0C9400007C
:1007C0000C948909229A2A9A08950E9488090C9407
:1007D000E20381FF02C02A9801C02A9A0C94B9044E
:1007E00081E0089581E008950C94F2031F93CF9364
:1007F000DF9300D000D01F92CDB7DEB749835A8374
:100800002091960189819A81211112C0662349F0B5
:100810000E94721C182F682F89819A810E94171CD0
:1008200003C00E94461C182F69817A81812F04C061
:100830000E94721C69817A810F900F900F900F9027
:100840000F90DF91CF911F910C94DB06FC0140814A
:1008500051816281738184810C94F6030C94E003CE
:10086000E82FE295EF70F0E032A1282F2F7081E0A1
:1008700090E001C0880F2A95EAF78095832382A330
:100880000895CF92DF92EF92FF92863030F481117B
:1008900005C0909180009F7D04C085E0909180000C
:1008A000906290938000282F30E0AFEFBFEF0E945E
:1008B000AA2B25E030E040E050E00E94822B2C374C
:1008C00084E138074105510530F4C90169E070E061
:1008D0000E945A2B29C0DA01C9018A50974DAF4FA7
:1008E000BF4F6627782F892F9A2F25EF38E241E0F6
:1008F00050E00E94822B69017A01CA01B9010E946D
:100900004A2B9B01AC01C701B6010E944A2BBB27B1
:10091000A92F982F872F009721E0A207B10511F08A
:10092000BC0102C06FEF7FEF70938B0060938A0071
:10093000FF90EF90DF90CF900895269A86E30E9473
:10094000300482E28093800089E1809381008FEF00
:100950009FEF90938700809386000C9460230E9401
:10096000A21D811102C00E942F1E0E949D040C94A2
:10097000E50308950C94E90308950E943D170E9431
:10098000BC042FEF84E39CE0215080409040E1F7CD
:1009900000C000000C94A61F0F931F93CF93DF930A
:1009A0008C010E942604EC01B8010E94F403882304
:1009B00009F4F7C1B801CE010E940E11882309F491
:1009C000F0C1CA3CFCE5DF0741F4F80182818823CD
:1009D00009F4E7C10E94690DE4C1CB3C8CE5D8075E
:1009E00008F012C1C33C9CE5D90761F4F80182818B
:1009F000882309F4D6C10E94F21C8272E1F00E94A1
:100A0000820FCFC1C43CECE5DE07C0F0C63C9CE5DC
:100A1000D90709F4CAC008F0DCC0C43CFCE5DF0714
:100A200009F0CBC0F8018281882309F4BAC10E9481
:100A3000F21C827221F30E94750FB3C1C531FCE52F
:100A4000DF0708F07BC0C2308CE5D80708F452C03D
:100A5000F8018281882309F454C00E94A21D8111EB
:100A600002C00E942F1E0E94BF1D90E09093990229
:100A700080939802FE01E350FC45E231F10530F429
:100A8000EA5AFF4F809198020C94A42B809198020F
:100A9000816027C0826025C0846023C0806121C03E
:100AA00080621FC080641DC080681BC08460886035
:100AB00018C08E7F16C08D7F14C08B7F12C08F7EB2
:100AC00010C08F7D0EC08F7B0CC08F770AC08B7FCC
:100AD000877F07C087FB222720F991E0922790FBB0
:100AE00087F980939802809198020E94C31D0E940A
:100AF0003D1757C1C1159CE5D90751F0C130DC4500
:100B000079F0C801DF91CF911F910F910C94F00300
:100B1000F8018281882309F444C10E94BD0441C1C7
:100B2000F8018281882309F43CC180912E02982F1C
:100B3000909590FB80F980932E0233C1C631FCE57D
:100B4000DF0739F50E94F21C282FF80182814091BD
:100B5000100150911101882379F02A7A91E009F46B
:100B600090E090935C01911102C069E201C065E3DD
:100B7000CA010E94961E0AC080915C01811102C0C8
:100B800069E201C065E3CA010E94A11E0E943E1DE8
:100B900008C1C23CDC4509F0B4CFF801828188234A
:100BA00009F4FFC00E94900FFCC0F80182818823E5
:100BB00009F4F7C00E942D0DF4C0C53CDC4509F0D6
:100BC000A0CFF8018281882309F4EBC00E94200D98
:100BD000E8C0F8018281C83CFCE5DF0731F48823D6
:100BE00009F4DFC00E944B0DDCC0C93CDC4530F489
:100BF000882309F4D6C00E943C0DD3C0882309F491
:100C0000D0C00E945A0DCDC0C13DECE5DE0791F485
:100C1000F8018281882309F4C4C00E949B0B8F30A5
:100C200028F00E949B0B843108F405CF8FE00E94CE
:100C3000850FB7C0C23DFCE5DF0708F05AC0CD3CC8
:100C40008CE5D80739F4F8018281882309F4A9C01A
:100C500081E0EDCFCE3C9CE5D907C0F4CB3CECE580
:100C6000DE0741F4F8018281882309F49AC00E94CA
:100C7000A30B97C0CC3CDC4509F043CFF80182813F
:100C8000882309F48EC00E94B40B8BC0F8018281C6
:100C9000CF3CFCE5DF0771F4882309F482C00E9491
:100CA0009B0B863028F00E949B0B883008F4C3CE43
:100CB00086E0BDCFC03DDC4570F4882309F471C0E7
:100CC0000E949B0B823028F00E949B0B853008F419
:100CD000B2CE82E0ACCF882309F463C00E949B0BA4
:100CE000893028F00E949B0B8E3008F4A4CE89E056
:100CF0009ECFC53DECE5DE0739F4F80182818823FB
:100D000009F44FC083E293CFC63DFCE5DF0740F511
:100D1000F8018281C33DFCE5DF0729F4882309F44B
:100D200040C088E184CFC43DDC4568F48823C9F124
:100D30000E949B0B853128F00E949B0B873108F4A1
:100D40007ACE85E174CF882361F10E949B0B8931B3
:100D500028F00E949B0B823208F46DCE89E167CFA8
:100D6000CD3DECE5DE0741F4F80182818823C9F02E
:100D700082E00E94812615C0CE3DFCE5DF0739F4F4
:100D8000F8018281882369F00E942F1E0AC0CC3DA1
:100D9000DC4509F0B6CEF8018281882311F080E0AD
:100DA000E8CF80E0DF91CF911F910F91089580E00F
:100DB00090E0089508959FE0799FF00111249BE44D
:100DC000899FE00DF11D1124E60FF11DEE0FFF1FAD
:100DD000E65BFE4F859194910895880F991FFC0161
:100DE000EE55FC4F859194910895CF93DF930E9427
:100DF000DB060E94E808EC01811521E5920708F066
:100E000042C0811560E5960708F031C1883E910522
:100E100000F5803E910508F0D7C1883A910570F43D
:100E2000853A910508F0A6C08130910509F4CCC13E
:100E300008F47DC1049708F0C7C179C18F3B9105C3
:100E400008F4A3C0803C910508F471C1805C91094D
:100E5000FDC0C11580E3D80780F4C11590E2D90721
:100E600008F0F2C0C03FD10508F461C1CF3FD10501
:100E700011F008F0A9C1D065A7C1C11520E4D207BF
:100E800008F0F2C0E7C0811569E5960760F5C11565
:100E900088E5D80708F037C1C11594E5D90778F47B
:100EA000C11523E5D20708F013C1C11562E5D607C5
:100EB00008F0F8C0DC2FCC27C16FD06A85C1C115FE
:100EC00085E5D80708F41AC1C11596E5D90708F0D9
:100ED0002EC18C2F0E9465098F71C82FD0E0DC2FA6
:100EE000CC27D06271C18D3B2CE5920709F416C165
:100EF000F0F4CB3B8CE5D80709F40AC108F00BC12C
:100F0000C1152AE5D20708F012C18C2F8F700E94FC
:100F1000650994E0D695C7959A95E1F7CF70D0E032
:100F2000DC2FCC27D06A8F70806EC82B4DC1803CDF
:100F30009C4509F4F9C0C13C8CE5D80760F4CE3B70
:100F40009CE5D90709F4EDC0CF3BDC4509F0EFC0C3
:100F5000C0E0D2ED39C1CE0190568115904208F023
:100F6000E6C08D2F8F710E946509DD27D0628F71D9
:100F7000D82B2AC1853A910509F4DCC0863A91053F
:100F800009F0DBC0C2E8D0E41FC1883A910509F43A
:100F9000D7C0893A910509F4D6C08A3A910509F477
:100FA000D5C08B3A910509F4D4C08C3A910509F467
:100FB000D3C08B3B910509F4D2C08C3B910509F459
:100FC000D1C08D3A910509F4D0C0803B910509F458
:100FD000CFC08E3A910509F4CEC08F3A910509F43D
:100FE000CDC0813B910509F4CCC0823B910509F449
:100FF000CBC0833B910509F4CAC0843B910509F439
:10100000C9C0853B910509F4C8C0863B910509F428
:10101000C7C0873B910509F4C6C0883B910509F418
:10102000C5C0893B910509F4C4C08D3B910509F405
:10103000C3C08E3B910509F4C2C08A3B910509F4F7
:10104000C1C0C0E0D4E4C0C0CE019F700E94ED06D4
:10105000EC01BAC0CE019927D3FF03C0EC01D86CD4
:10106000B3C0EC01D06CB0C0DF70D06AADC083708B
:1010700021E030E002C0220F331F8A95E2F73C687E
:10108000CE0174E0969587957A95E1F78370382BB9
:10109000CF70C695C69580E2C89FE0011124C22B8F
:1010A000D32B92C04C2F4695469590E2499FA001C4
:1010B0001124C370DD2721E030E0C90102C0880F90
:1010C000991FCA95E2F7EC01C42BD52BDC687CC0D4
:1010D0004C2F4695469580E2489FA0011124C3708D
:1010E000DD2721E030E0C90102C0880F991FCA95B1
:1010F000E2F7EC01C42BD52BDA6866C0DC2FCC27D5
:10110000C46FD06A61C0DC2FCC27C06FD06A5CC0CE
:10111000C0E0D4ED59C0C0E0D5ED56C0C0E0D1ED7F
:1011200053C0C0E0D0ED50C0C0E0D3ED4DC0C0E032
:10113000D0E04AC0C1E8D0E447C0C3E8D0E444C02E
:10114000C2EED4E441C0C9EED4E43EC0CAEED4E459
:101150003BC0C5EBD4E438C0C6EBD4E435C0C3EB28
:10116000D4E432C0C4EBD4E42FC0C7EBD4E42CC029
:10117000CCECD4E429C0CDECD4E426C0C3E8D5E45B
:1011800023C0CAE8D5E420C0C2E9D5E41DC0C4E943
:10119000D5E41AC0C1E2D6E417C0C3E2D6E414C055
:1011A000C4E2D6E411C0C5E2D6E40EC0C6E2D6E47D
:1011B0000BC0C7E2D6E408C0CFE6D4E405C0C0E760
:1011C000D4E402C0CAE2D6E4CE01DF91CF91089503
:1011D0008238910549F1B0F48133910509F458C082
:1011E00048F48932910509F44EC08A32910509F418
:1011F00054C008958533910509F440C089339105A1
:1012000099F00895833E910529F138F4803E9105C7
:1012100091F0823E9105A1F00895863E9105F9F086
:10122000873E910531F108952091980220FD3AC042
:1012300021FD38C008958091980280FD35C032C0EC
:101240008091980282FF32C08091980284FD30C064
:1012500083EE39C08091980282FD28C0F5CF80913D
:10126000980283FF27C08091980284FD21C087EEF9
:101270002AC08091980283FD1DC0F5CF809198020D
:1012800085FD1AC01BC08091980285FD17C014C04F
:101290008091980286FD14C015C08091980286FD49
:1012A00011C00EC080EE0FC089E30DC082EE0BC0EE
:1012B00080E009C086EE07C089E205C085E303C06F
:1012C0008AE201C081E390E008959091980292FF34
:1012D0000DC0282F2871283019F4877F846006C03C
:1012E000282F2471243011F48B7F886093FF0DC068
:1012F000282F2871283119F4877E846106C0282F91
:101300002471243111F48B7E886194FD877E0895C9
:1013100008950895E82FF0E0EE0FFF1FE35AFE4F07
:101320008081918108950895A2E3B1E041E050E009
:1013300025E02A0F8D91E82FE295EF70F0E031A1C2
:101340008F70BA0102C0660F771F8A95E2F7CB0152
:10135000962F9095932391A392A1892B82A32A1370
:10136000E9CFA3E2B1E041E050E02FE02A0F8D91F8
:10137000E82FE295EF70F0E031A18F70BA0102C062
:10138000660F771F8A95E2F7CB01962F90959323EE
:1013900091A392A1892B82A32A13E9CFE7E6F1E07A
:1013A000ADE5B1E0119211921D921D9271E0E1370D
:1013B000F707C1F785E00E94760A0C94AF045F92AC
:1013C0006F927F928F929F92AF92BF92CF92DF9255
:1013D000EF92FF920F931F93CF93DF9302E311E0FD
:1013E000A7E6B1E0612CEE24E394F12C5D018D9031
:1013F0009C90119711961C921E92E80189918E0182
:10140000E82FE295EF70F0E091A18F70A70101C085
:10141000440F8A95EAF7892F842B81A382A1542E49
:101420005094852182A3D0EADA95F1F783E2C82EA1
:1014300081E0D82E80E090E0E60179906E01272DC2
:1014400022952F7030E0E90168A12D913C91119710
:1014500070E0D72DDF7002C075956795DA95E2F7D9
:1014600060FD08C0B701082E02C0660F771F0A94FE
:10147000E2F702C060E070E0262B372B11963C9318
:101480002E9301968F309105B9F681A1D52DD823E1
:10149000D1A382A1482B42A3129681E0F5012081BD
:1014A00031818216930609F480E0682AF1E0A137C1
:1014B000BF0709F09BCF262D45E06DE571E087E67B
:1014C00091E00E94770A0E942E04862DDF91CF9131
:1014D0001F910F91FF90EF90DF90CF90BF90AF9052
:1014E0009F908F907F906F905F9008950895FF92E6
:1014F0000F931F93CF93DF93F82E092F162FD72F1B
:10150000C42F222349F081E0809373010E944A1F77
:101510009093720180937101809173018823D9F0B7
:1015200080917101909172010E94561F069798F068
:10153000EF2DF02FA12FBD2F80E090E04C2F50E039
:101540008417950734F4219131912D933D930196A1
:10155000F7CF10927301DF91CF911F910F91FF9000
:101560000895CF92DF92EF92FF920F931F93CF9344
:10157000DF937B01282F382FE82FF0E0F11006C011
:10158000E754FB4F6491762F862F7BC00F2D10E020
:1015900046E0649FC0011124CFEFD0E0BE010E945D
:1015A0005A2BAB016BEA6403C001659F900D1124B7
:1015B0008E0D911D8E0D911D982F990F890FBE01D3
:1015C000601B710B6E9FD0016F9FB00D7E9FB00DA1
:1015D00011249B2F8F9DB0011124672F77277E0147
:1015E000E61AF70AEE9EB001EF9E700DFE9E700D9A
:1015F00011246E01C81AD108C09E7001C19EF00C62
:10160000D09EF00C11240F2D1127C01BD10BCE9FA3
:101610008001CF9F100DDE9F100D1124812F4230CD
:10162000510591F04CF441155105E1F0413051055F
:10163000B9F4822F272F16C04430510569F044F0C9
:101640004630510579F00CC0822F2B2F912F0AC004
:101650002B2F932F872F06C08B2F922F212F02C065
:101660008B2F972FE22FF0E0E754FB4F7491E82F78
:10167000F0E0E754FB4F6491E92FF0E0E754FB4FB3
:101680008491DF91CF911F910F91FF90EF90DF90A8
:10169000CF9008950895CF93DF93762FE901682FB7
:1016A000842F0E94B10A798368838A83DF91CF9166
:1016B000089580915D02282F269530E0211531058F
:1016C00019F48170826005C02532310524F08170E3
:1016D000886480935D02089588E090E00C94D92B93
:1016E000CF93DF9300D000D0CDB7DEB7AB01BC0104
:1016F00049835A836B837C830E94590B49815A81A9
:101700006B817C8188E090E00F900F900F900F909C
:10171000DF91CF910C94F72BEDE5F2E083E080832D
:1017200011828FEF82838383148260817181828131
:1017300093810C94700B80915D0280FF02C08695AE
:10174000089580E0089580916102833018F48F5FDE
:101750008093610260915D0270915E0280915F02F0
:10176000909160020C94700B80916102882319F0B3
:1017700081508093610260915D0270915E02809160
:101780005F02909160020C94700B6091040170E014
:1017900080915D0280FF0AC08091780123E0829FE2
:1017A000C00111248E599D4F0C949E108091770199
:1017B00090910301891780F7E82FF0E09F01220F35
:1017C000331FE20FF31FEE59FD4F11821082128278
:1017D0008F5FF0CF90915D0290FF16C090917701DE
:1017E00020910301921770F4E92FF0E0DF01AA0FB6
:1017F000BB1FEA0FFB1FEE59FD4F818360834283BD
:101800009F5FF0CF0C94C50B0895CF93DF9300D06A
:101810001F92CDB7DEB790915D0290FF0AC09E0186
:101820002F5F3F4F0E944B0B4B8169818A810E9441
:10183000EA0B0F900F900F90DF91CF910895CF9307
:10184000DF93EC01EC81F0E0EC54FC4F4491EDE5CA
:10185000F2E0628181810E94050C8C818F5F8C8314
:10186000DF91CF910895CF93DF93EC01EDE5F2E0A6
:10187000438162818C810E94050C8C818F5F8C83F7
:10188000DF91CF9108950F931F93CF93DF9300D0F3
:101890001F92CDB7DEB78C018091740181110AC00F
:1018A0009E012F5F3F4F4FEF6FEF0E944B0B8A81DE
:1018B00080937401F8018481813051F028F08230E6
:1018C00061F4409174010AC08091740140E007C046
:1018D0006091740140E080E003C040E080E060E09F
:1018E0000E94EA0BF801248130E0C901019663E00F
:1018F00070E00E946E2B84830F900F900F90DF9109
:10190000CF911F910F910895AF92BF92CF92DF9226
:10191000EF92FF920F931F93CF93DF9300D01F920C
:10192000CDB7DEB7182FF62E042FE22E90915D0270
:1019300090FF6EC0E92FE695AE2FB0E0A95CBE4FD8
:101940008C91809380019E7F923061F49E012F5F85
:101950003F4F812F0E944B0B4B8169818A810E94EE
:10196000EA0B44C0823019F4009160023FC0863017
:1019700019F410915E023AC08930D9F38931B1F57A
:10198000E9518E2F8170D82EE695F0E0EC54FB4F94
:10199000A590B490C12CBB2460910201C61620F51D
:1019A000EC2DF0E0EA9DC001EB9D900DFA9D900DAD
:1019B000112470E00E945A2B812FD11002C0860F93
:1019C00001C0861B90917701E90FF11D9F01220F45
:1019D000331FE20FF31F9F012E593D4F402F6F2DF4
:1019E0000E944B0BC394D8CF0E94C50B10935E028C
:1019F000F0925F0200936002EE2051F060915D0270
:101A000070915E0280915F02909160020E94700B63
:101A10000F900F900F90DF91CF911F910F91FF903A
:101A2000EF90DF90CF90BF90AF900895EDE5F2E09A
:101A30009181282F4381628188E0890F0C94840C66
:101A400081E00C94160DEDE5F2E09181282F4381A1
:101A5000628188EF890F0C94840C81E00C94230D33
:101A6000EDE5F2E0628128E0620F08F46FEF282FC5
:101A7000438181810C94840C81E00C94300DEDE560
:101A8000F2E0628128E0621B08F460E0282F4381C5
:101A900081810C94840C81E00C943F0DEDE5F2E023
:101AA000438128E0420F08F44FEF282F62818181A3
:101AB0000C94840C81E00C944E0DEDE5F2E0438132
:101AC00028E0421B08F440E0282F628181810C94B9
:101AD000840C81E00C945D0D20E00C94840CFF924A
:101AE0000F931F93CF93DF93EC01F12C0FEF10E0D6
:101AF00060910201F616E8F42091770130E02F0D95
:101B0000311DC901880F991F280F391F2E593D4FCC
:101B100070E0C8010E946E2B962F8C81409160026C
:101B200060915F02F99E800D11240E944B0BF3948B
:101B3000DFCF0E94C50B9A818C8190FF02C08F5F1E
:101B400001C081508C83DF91CF911F910F91FF9045
:101B50000895BF92CF92DF92EF92FF920F931F935F
:101B6000CF93DF93FC01828180FF02C00FEF01C0A1
:101B700001E010E0809102011817E0F5C12ED12C90
:101B800080917701E601C80FD11DCE01880F991F02
:101B9000C80FD91FCE59DD4F198218821A8234E03E
:101BA000E32EF12CB12C809176018B0D87FF03C0C1
:101BB00090910201890F082E000C990BC816D906C6
:101BC00091F4809160028E9DA0018F9D500D112493
:101BD00055954795559547959E0160915F02809177
:101BE0005E020E944B0BB00EF1E0EF1AF108D9F63D
:101BF0001F5FC0CF0E94C50B80917601013031F488
:101C0000811102C080910201815007C090E00196CD
:101C10006091020170E00E946E2B80937601DF914B
:101C2000CF911F910F91FF90EF90DF90CF90BF90D9
:101C30000895CF938091770190910301891770F4F3
:101C4000E82FF0E09F01220F331FE20FF31FEE5940
:101C5000FD4F1182108212828F5FF0CFC0E0609141
:101C60000201C617B8F5EC2FF0E070E0CF010E943A
:101C70006E2B40917701480F80917501082E000C62
:101C8000990B50E0E817F907C4F020910101022EEA
:101C9000000C330B2E173F0784F09A01220F331FDD
:101CA000240F351F2E593D4F4091600260915F0215
:101CB00080915E020E944B0B0BC0FA01EE0FFF1FDA
:101CC0004E0F5F1FFA01EE59FD4F118210821282F2
:101CD000CF5FC5CF0E94C50B209100018091750197
:101CE000820F8093750190910101920F90930101F1
:101CF00019165CF4082E000C990B4091020150E07B
:101D000041505109841795071CF02195209300013B
:101D1000CF9108950F931F93CF93DF938C01FC0114
:101D20008481958101968170992795838483C0E091
:101D3000D5E580910201C817F8F42091770130E0D1
:101D40002C0F311DC901880F991F280F391F2E59DB
:101D50003D4F4C2F4695F80184819581840F911D4C
:101D600081704091600260915F028D9F802D1124EF
:101D70000E944B0BCF5FDDCFDF91CF911F910F9171
:101D80000C94C50B0F931F93CF93DF93EC0100E0EE
:101D900010E080910201282F30E00217130724F58C
:101DA000909177019801290F311DA901440F551F0A
:101DB000240F351F2E593D4F869590E04C81081712
:101DC00019071CF4442331F002C0411103C04091B3
:101DD000600201C040E060915F0280915E020E945B
:101DE0004B0B0F5F1F4FD5CF0E94C50B2C8130E0EE
:101DF0002F5F3F4F217033272C83DF91CF911F91AD
:101E00000F910895EDE5F2E080818E7F80836081FF
:101E10007181828193810E94700B109281012FEF5A
:101E200080E792E0215080409040E1F700C0000040
:101E30000C94C50B60915D02669570E04BE050E03C
:101E400085E091E00E94C42B892B19F481E08093F6
:101E500081010E944A1F90937A018093790108952D
:101E600090915D0290FF35C09170811102C0926027
:101E700006C0853210F0986402C0880F982B9093AA
:101E80005D02662351F060915D0270915E02809167
:101E90005F02909160020E94700B60915D026695F6
:101EA00070E04BE050E085E091E00E94C42B892B6C
:101EB00019F01092810102C00E941A0F81E08093F4
:101EC0007C014091600260915F0280915E020C94FF
:101ED0006C0D0895682F90915D02969581E0890FB1
:101EE000853208F081E00C94300F81E00C946A0F89
:101EF000682F90915D0296958FEF890F09F484E227
:101F00000C94300F81E00C94780F61E00C94300F4A
:101F1000EDE5F2E080818160808386950C94850FE9
:101F200080915D0280FD0C94020F0C94880F60E09C
:101F30000C94300F80917F01811133C080912E026B
:101F4000816080932E020E94A21D811104C00E9414
:101F50002F1E0E948C0B0E946C0B60935D0270938D
:101F60005E0280935F02909360026E7F61F40E9434
:101F70008C0B0E946C0B60935D0270935E028093E9
:101F80005F02909360020E94590B10928101809130
:101F90005D0280FF03C086950E94970F81E08093C9
:101FA0007F0108950F931F93CF93DF938091810159
:101FB000882309F48CC080918001E0915D02E69550
:101FC000E81BE0937B01823049F4F0E0E055FC4FE0
:101FD000E491CE2FD0E00FE11CE049C0863049F4F7
:101FE000F0E0E355FC4FE491CE2FD0E003E31CE09A
:101FF0003EC0893051F4E695F0E0E655FC4FE4919F
:10200000CE2FD0E00FE61DE032C08F3051F4E695C0
:10201000F0E0E955FC4FE491CE2FD0E009EA1DE055
:1020200026C0853149F4F0E0EC55FC4FE491CE2F09
:10203000D0E009E11EE01BC0883181F0833239F421
:10204000E2EAF3E0C591D49103E41CE010C08432CD
:1020500051F4C4EFD1E002EC1EE009C0C8EED3E0B9
:102060000AE81EE004C0C0EDD7E00AE41BE080915E
:102070007C01882389F010927C010E944A1F9E01F6
:1020800020953095820F931F90937A018093790168
:1020900010927E0110927D018091790190917A01D8
:1020A0000E94561F8C179D0790F0E0917901F091E6
:1020B0007A01CE0FDF1FD0937A01C093790189E7AF
:1020C00091E0F801DF91CF911F910F910994DF9179
:1020D000CF911F910F9108952EB1342F3095232366
:1020E0003EB1432B3FB7F894FC01680F791FE61708
:1020F000F70789F0819198E04EB9000000C087FF92
:102100002EB9880F000000C000C000C02EB900C06A
:102110009A9591F7ECCF3FBF08952DB1242B2DB99F
:102120009B01220F331F620F731F0E946C1087ECFC
:1021300090E00197F1F700C00000089544E00C948E
:102140008D100F931F93CF93DF93C62FD42F022FA1
:10215000FC0182818823C9F0609384010E944A1F98
:10216000909383018093820180E28C0F883008F085
:1021700050C0C77081E001C0880FCA95EAF7DF91AF
:10218000CF911F910F910C9461141091840116133B
:1021900030C080918201909183010E94561F883C3B
:1021A000910538F5C0E2CD0F1D17B9F080E2810F1F
:1021B000883040F4177081E001C0880F1A95EAF763
:1021C0000E946814C83048F481E09D2F977001C0C8
:1021D000880F9A95EAF70E946114802F0E944E148E
:1021E000C830B8F4D77081E001C0880FDA95EAF7FB
:1021F0000AC080E28C0F883060F4C77081E001C0B3
:10220000880FCA95EAF7DF91CF911F910F910C9437
:102210006814DF91CF911F910F9108959C01CB011C
:10222000203F4CE53407F9F078F4283DFCE53F0702
:10223000B9F0293D4CE5340711F1273D3C4531F516
:1022400026E241EE61EE1EC0223FFCE53F0799F019
:1022500070F0233F3C45D1F427E245EE66EE12C014
:1022600027E245EE0EC026E241EE60EE0BC027E20B
:1022700045EE64EE07C026E241EE62EE03C028E2BE
:1022800041E065EE0E94A11080E00895FC0182818A
:10229000882319F010928401089581E008959093A5
:1022A0008A01809389010895E0918901F0918A0162
:1022B000309721F00190F081E02D099480E008959D
:1022C000E0918901F0918A01309799F020912201E3
:1022D000222359F02091980227FF07C0DC012C919E
:1022E00011962C93119725E02C930280F381E02D19
:1022F00009940895E0918901F0918A01309739F0AD
:1023000022E0DC012C930480F581E02D09940895EE
:1023100020918701309188018217930771F0909383
:10232000880180938701E0918901F0918A013097BB
:1023300021F00680F781E02D099408952091850110
:10234000309186018217930771F0909386018093F4
:102350008501E0918901F0918A01309721F0008494
:10236000F185E02D0994089585B7806885BF85B70C
:10237000806885BF0895089508950C94BC11089550
:102380000C94BF110E94B4110E94BB110C94BD119A
:1023900081E008950E94411F0E9494090E94162026
:1023A0000E9460230E949A0F0C94C0114F925F927A
:1023B0007F928F929F92AF92BF92CF92DF92EF92D5
:1023C000FF920F931F93CF93DF93CDB7DEB72A977A
:1023D0000FB6F894DEBF0FBECDBF0E94DF090E948A
:1023E000C811811111C08FEF89838A831B820E94DB
:1023F0004A1F8160782F9D838C8349815A816B812C
:102400008D810E94941257C09CE8C92E91E0D92E6C
:1024100000E010E0AA24A394B12C702E802F0E941B
:102420008A094C01F601419051906F0148265926C6
:102430004114510431F40F5F1F4F0530110569F746
:10244000D2CF80912E0281FD0E94930920E030E0DE
:102450007501022E02C0EE0CFF1C0A94E2F7C701C0
:1024600084219521892B09F12E837F828E209F2044
:1024700091E0892809F490E098870E944A1F8160C2
:10248000782F9A8789874E815F8168858A850E9427
:102490009412000F111FF801E457FE4F80819181C3
:1024A000E826F926F182E08206C02F5F3F4F2F30E9
:1024B000310571F6C0CF0E94B92210918B010E94A4
:1024C00054111817D9F00E94541180938B012A9649
:1024D0000FB6F894DEBF0FBECDBFDF91CF911F9135
:1024E0000F91FF90EF90DF90CF90BF90AF909F90B3
:1024F0008F907F905F904F900C94BA042A960FB6FD
:10250000F894DEBF0FBECDBFDF91CF911F910F9129
:10251000FF90EF90DF90CF90BF90AF909F908F9003
:102520007F905F904F900895CF93DF93CDB7DEB744
:102530002B970FB6F894DEBF0FBECDBF4F835887E1
:1025400069877A878B87DE01119686E0FD011192FB
:102550008A95E9F785E0FE01379601900D928A95FC
:10256000E1F749815A816B817C818D819E810E9436
:10257000E7192B960FB6F894DEBF0FBECDBFDF91E3
:10258000CF910895FC01808191810E94B31C089530
:10259000882309F41AC18238C1F40E94541181FDC4
:1025A00014C169E380911001909111010E94961E5F
:1025B0000E943E1D2FEF81EE94E02150804090401C
:1025C000E1F700C0000069E319C08338F9F40E9404
:1025D000541180FDFAC063E58091100190911101C2
:1025E0000E94961E0E943E1D2FEF81EE94E0215026
:1025F00080409040E1F700C0000063E58091100149
:10260000909111010E94A11E0C943E1D8438C1F4CA
:102610000E94541182FDD9C067E48091100190910D
:1026200011010E94961E0E943E1D2FEF81EE94E044
:10263000215080409040E1F700C0000067E4DECF09
:102640009CEF980F913A40F4682F8091100190917F
:1026500011010E94961ED8CF90E2980F983050F446
:10266000877091E001C0990F8A95EAF7892F0E943F
:10267000F51CCACF9BE5980F933070F4853A29F08A
:10268000863A31F083E890E005C081E890E002C02E
:1026900082E890E00C94881198E5980F973108F043
:1026A0008EC0883A09F445C0893A09F445C08A3A8F
:1026B00009F445C08B3A09F445C08C3A09F445C089
:1026C0008B3B09F445C08C3B09F445C08D3A09F4B5
:1026D00045C0803B09F445C08E3A09F445C08F3AA5
:1026E00009F445C0813B09F445C0823B09F445C06B
:1026F000833B09F445C0843B09F445C0853B09F49C
:1027000045C0863B09F445C0873B09F445C0883B7A
:1027100009F445C0893B09F445C08D3B09F445C027
:102720008E3B09F445C08A3B09F445C080E090E047
:1027300044C082EE90E041C089EE90E03EC08AEE57
:1027400090E03BC085EB90E038C086EB90E035C070
:1027500083EB90E032C084EB90E02FC087EB90E0F9
:102760002CC08CEC90E029C08DEC90E026C083E872
:1027700091E023C08AE891E020C082E991E01DC089
:1027800084E991E01AC081E292E017C083E292E00E
:1027900014C084E292E011C085E292E00EC086E2AD
:1027A00092E00BC087E292E008C08FE690E005C09F
:1027B00080E790E002C08AE292E00C949E11803F94
:1027C00020F00E94C1210C94AE220895882309F4C0
:1027D00064C0823879F40E94541181FF5EC069E3BD
:1027E00080911001909111010E94961E0E943E1D41
:1027F00069E310C08338B1F40E94541180FF4DC0CA
:1028000063E580911001909111010E94961E0E9433
:102810003E1D63E580911001909111010E94A11E5F
:102820000C943E1D843879F40E94541182FF35C007
:1028300067E480911001909111010E94961E0E9400
:102840003E1D67E4E7CF9CEF980F913A10F4682F94
:10285000E1CF90E2980F983050F4877091E001C07A
:10286000990F8A95EAF7892F0E94FB1CD9CF9BE527
:10287000980F933020F480E090E00C94881198E554
:10288000980F973120F480E090E00C949E11803FE7
:1028900020F00E9429220C94AE220895CF93C82FD5
:1028A0000E94C812C93349F42FEF83EC99E02150FC
:1028B00080409040E1F700C000008C2FCF910C9435
:1028C000E613882321F00E94F51C0C943E1D089508
:1028D000882321F00E94FB1C0C943E1D08954F920A
:1028E0005F926F927F92BF92CF92DF92EF92FF92B0
:1028F0000F931F93CF93DF937C01062FC72FFC010B
:10290000158112951F70D281D1110E94121D0E9453
:10291000EB1C882379F0DD2369F080E2800F88309A
:1029200048F082E00E94891D0E94EB1C91E0B82EC5
:10293000B92601C0B12CCC2EC2948FE0C822D12C74
:10294000F601E859FF4F0C94A42B8C2F807FCF7099
:10295000882311F0C295C07FDD2399F0CC2309F4C0
:10296000C4C180E2800F883010F0011104C08C2FA8
:102970000E94F51C03C08C2F0E94051D0E943E1D65
:10298000B4C1802F0E94E613CC2309F4F7C180E282
:10299000800F883010F0011104C08C2F0E94FB1CA6
:1029A00003C08C2F0E940B1D0E943E1DE7C18C2F7F
:1029B000807FCF70803211F0C295C07F002319F064
:1029C0000130C9F022C0DD2371F0112341F0113034
:1029D00031F40E94251D8C2B0E942B1DCFC10E941B
:1029E000251D8C2B3AC1112319F0113009F4C6C1F1
:1029F0000E94341D18C0DD2321F0163008F0BEC13E
:102A00000EC0153008F0BAC10EC0DD2351F01123FD
:102A100031F0F701858180FF68C18F7085838C2F2D
:102A20001CC1111173C18C2F1EC18C2F86958695E8
:102A3000837090E0009719F0019761F09FC1DD234A
:102A400021F0802F9C2F937002C080E090E00E94C4
:102A50008811A4C1DD2321F0802F9C2F937002C028
:102A600080E090E00E949E1199C1DD23F9F0053FBE
:102A700051F0063F71F0043FA9F4809192029091C9
:102A8000930281600BC080919202909193028260C8
:102A900005C080919202909193028460909393027A
:102AA00080939202802F0E94C1211EC0053F51F0E9
:102AB000063F71F0043FA9F4809192029091930235
:102AC0008E7F0BC080919202909193028D7F05C002
:102AD00080919202909193028B7F909393028093C6
:102AE0009202802F0E9429220E94AE2257C18C2F71
:102AF000837009F04BC0D1114DC1202F229526952E
:102B00002770220F220F602F6F70862F90E0A0E0B9
:102B1000B0E02C013D01022E04C0440C551C661C83
:102B2000771C0A94D2F704FF10C08FE090E0A0E079
:102B3000B0E004C0880F991FAA1FBB1F2A95D2F7C7
:102B400080959095A095B09503C080E090E0DC0161
:102B5000C695C695C370D0E0BC01CD016429752926
:102B600086299729C230D10559F0C330D10559F0D3
:102B7000219719F00E942C1B0DC10E941A1B0AC13B
:102B80000E943E1B07C10E94181B04C1DD2319F0DF
:102B90008C2F817001C08695882309F4FBC0202FFB
:102BA000229526952770220F220F602F6F70862F97
:102BB00090E0A0E0B0E02C013D01022E04C0440CE6
:102BC000551C661C771C0A94D2F704FF10C08FE0D6
:102BD00090E0A0E0B0E004C0880F991FAA1FBB1FBF
:102BE0002A95D2F780959095A095B09503C080E086
:102BF00090E0DC01C695C695C370D0E0BC01CD0164
:102C00006429752986299729C230D10559F0C33026
:102C1000D10559F0219719F00E94F21BBBC00E9408
:102C2000E01BB8C00E94041CB5C00E94531BB2C078
:102C3000802F90E0FC01E05EF109E531F10508F03C
:102C400050C0E858FF4F0C94A42B0F708C2F8F713D
:102C5000DD2331F00E94791B802F0E9461148EC009
:102C60000E949A1B802F0E94681488C0DD2341F0C7
:102C7000153008F083C08C2F8F710E94BF1B7EC05F
:102C8000163008F07BC0F7CFDD2339F08C2F8F7121
:102C90000E94791B73C0DD23C9F38C2F8F710E94B2
:102CA0009A1B6CC0DD2329F08C2F8F710E94641B4E
:102CB00065C00E945F1B62C0DD2349F0CF718C2F7D
:102CC0000E94791B63E08C2F0E94741D57C081E025
:102CD0000E94891D123008F451C082E00E94891DB3
:102CE0004DC0DD2331F0112389F2802F0E94C812DC
:102CF00045C0112391F2093349F4FFEF23EC89E039
:102D0000F15020408040E1F700C00000802F0E9479
:102D1000E61334C04C2F4F70602FC7010E94D706B6
:102D20000E948B1A3BC0D11139C0CF70D0E0C230A5
:102D3000D10599F03CF4209769F02197F9F40E94AD
:102D40009A232CC0C430D10571F054F02597B1F40A
:102D500080E00AC00E947D2321C00E94D9231EC0AA
:102D60000E94E0231BC085E00E94032417C04C2F63
:102D70004F70602FC7010E94DA0610C098E0C91694
:102D8000D10441F05CF0FAE0CF1AD10822E0C2167B
:102D9000D10420F40E9454110E94BA04BB20F1F027
:102DA0000E94E71C80FD1AC0F70112820E94E11CFC
:102DB0000E94791BC7010E94FC160E94E11CDF9152
:102DC000CF911F910F91FF90EF90DF90CF90BF9028
:102DD0007F906F905F904F900C949A1BDF91CF91F2
:102DE0001F910F91FF90EF90DF90CF90BF907F9059
:102DF0006F905F904F9008950F931F93CF93DF9341
:102E0000EC01888199812B813C81232BB9F09F3F74
:102E100011F48F3F99F0CE010E94CC04882371F009
:102E2000688179818A810E94BE1C8C010E94161CD7
:102E30000E94171BB801CE010E946F14DF91CF9141
:102E40001F910F9108950E94121D0E94221D0E9441
:102E50003E1D0E9454230E94AE2280E090E00E941A
:102E6000881180E090E00C949E1180911001909167
:102E700011010E94AC1E0C9423170E94021D0C9499
:102E80003517E92FE295EF70F0E03297EE30F1055B
:102E9000B0F4E357FF4F0C94A42B803F91F018F44B
:102EA000803E68F40EC0843F51F40BC0803E48F071
:102EB000813F29F406C093FB882780F9089580E0BC
:102EC000089581E008950E94B31C0E94411708955F
:102ED000CF93DF9300D000D01F92CDB7DEB70F9015
:102EE0000F900F900F900F90DF91CF910895CF9397
:102EF000DF9300D000D000D0CDB7DEB726960FB656
:102F0000F894DEBF0FBECDBFDF91CF9108951F9320
:102F1000CF93DF93C091970116E080919801C81775
:102F200099F0D0E01C9FF0011D9FF00D1124E75691
:102F3000FE4F4081518162817381848195810E941D
:102F400077172196C770E9CFDF91CF911F91089530
:102F50004091C9015091CA016091CB017091CC019F
:102F60008091CD019091CE010C9477178091CE0184
:102F700082958F7009F054C08091CB01882309F4A9
:102F80004FC080919701A09198016091C901709103
:102F9000CA014091CC015091CD01B6E08A1709F4E5
:102FA0003FC090E041155105C1F17F3F11F46F3FE3
:102FB000A1F1B89FF001B99FF00D1124E756FE4F23
:102FC000218172132AC02081621327C0228121111E
:102FD00024C0238134812417350710F4215031098E
:102FE000241B350B283C3105C0F42091CE012F70F5
:102FF00020612093CE0126E0289FF001299FF00D4B
:103000001124E256FE4F80818F708061808389ECAD
:1030100091E00E94FC160C94871701968770BECF32
:103020000895CF92DF92EF92FF920F931F93CF9369
:10303000DF93CDB7DEB762970FB6F894DEBF0FBE51
:10304000CDBF8C0185E0F801DE011D9601900D9247
:103050008A95E1F7D8014C9111965C9111971296DF
:103060006C9112971396CD90DC9014973091C90112
:103070007091CA018091CC019091CD01009709F423
:103080006BC17F3F19F43F3F09F466C1E090CB016B
:10309000EE2009F4C0C02091CE01C816D90628F050
:1030A000F601E81BF90BCF0104C0809590958C0DBB
:1030B0009D1DFF24F394883C910578F0F12C207F2E
:1030C00009F0C6C07C2DD98AC88A89890E946817F0
:1030D00089EC91E00E94FC16B1C0822F807F09F03C
:1030E00046C0751314C0341312C0611110C02F7084
:1030F00020612093CE010E94A81789EC91E00E94E4
:10310000FC168091CE01D80115968C932EC0CD2847
:1031100019F15F3F11F44F3FF9F0F62E61111CC019
:10312000809197012091980136E0821709F45AC0E6
:1031300090E0389FF001399FF00D1124E756FE4FC3
:103140007181571306C07081471303C072817111DA
:1031500003C001968770E9CFF62E662309F427C1D4
:103160008091CE0181608093CE01F12C20C1751336
:1031700008C0341306C0611104C08091CE01D8018B
:10318000C3C04D875E878D859E856A8B0E946317BD
:103190006A898823E1F16623D1F12091CE01822F43
:1031A00082958F7090E0029774F08091C9019091A0
:1031B000CA0198878F831986DB86CA862C87CE0141
:1031C00007960E94FC1686E0F801A9ECB1E0019098
:1031D0000D928A95E1F70E94B6170E94A817FF2466
:1031E000F394E5C04D875E878D859E850E94B31C54
:1031F000292F22952F7030E0223031050CF0CBC002
:103200009F7009F0C5C0805E883008F4D0C0C80146
:103210000E94FC16E4CFC816D90608F453C0F60184
:10322000E81BF90BCF01883C910508F450C0F12C44
:103230007C2DD98AC88A89890E946817E9ECF1E057
:1032400086E0DF011D928A95E9F70E94A817AFC0BA
:10325000751314C0341312C0611110C08091CE01D7
:10326000F8018583C8010E94FC1686E0E9ECF1E0D4
:10327000DF011D928A95E9F7FE2C99C04D875E8784
:103280008D859E856A8B0E9463176A89882309F45D
:10329000BECF662309F4BBCF2091CE01822F829549
:1032A0008F7090E002970CF48ECF8091C9019091BD
:1032B000CA019A8389831B82DD82CC822E83CE0150
:1032C00001967FCF809590958C0D9D1DACCFF62EED
:1032D000662309F49CCF75132EC034132CC02091A3
:1032E000CE0120FD1FC0822F82958F70D9F0D801AA
:1032F00015962C9315978F3049F08F5F982F9295E4
:10330000907F822F8F70892B15968C93C8010E9415
:10331000FC1686E0F801A9ECB1E001900D928A95C7
:10332000E1F793CF86E0F801A9ECB1E001900D92AE
:103330008A95E1F73CC04D875E878D859E850E940A
:103340006317811140CF8091CE0181608093CE01BF
:10335000C8010E94FC162BC0662309F458CF4D8784
:103360005E878D859E850E946317F82E882309F459
:103370004ECF86E0F801A9ECB1E001900D928A955C
:10338000E1F789EC91E00E94C2120E94B6175DCF6E
:10339000811139CF0CC0243031050CF038CF9F702B
:1033A00009F431CFF8019581907F09F02CCF8F2D52
:1033B00062960FB6F894DEBF0FBECDBFDF91CF91FE
:1033C0001F910F91FF90EF90DF90CF9008951F9382
:1033D000CF93DF93CDB7DEB72C970FB6F894DEBF4F
:1033E0000FBECDBF4F83588769877A878B879C87AD
:1033F000CE0107960E941118882369F08F81988565
:103400002A853B85232BF1F19F3F09F063C08F3F55
:1034100009F060C037C086E0FE013796DE011196E4
:1034200001900D928A95E1F76F817885EA85FB8599
:10343000309741F17F3F11F46F3F21F120919801C6
:1034400030E0C9010196877099274091970150E0BB
:103450008417950709F447C069837A83FD83EC8359
:1034600096E0929FD001939FB00D1124A756BE4FB6
:10347000FE01319601900D929A95E1F780939801A3
:103480000E94871716E08091970190919801891703
:10349000C1F1189FC001112487569E4F0E94111838
:1034A000882379F1E09197011E9FF0011124E756DE
:1034B000FE4F4081518162817381848195810E9498
:1034C00077178091970190E00196877099278093F4
:1034D0009701D9CF4F81588569857A858B859C85E1
:1034E0000E947717CFCF0E943D171092980110923B
:1034F0009701E9ECF1E086E0DF011D928A95E9F79A
:10350000C1CF2C960FB6F894DEBF0FBECDBFDF91B2
:10351000CF911F910895EF92FF920F931F93CF9336
:10352000DF938C01892B09F46CC0F12CEE24E39419
:10353000E8012196F8018491843740F4843008F042
:1035400051C0813081F0823019F15BC0853709F4B8
:1035500044C0A8F19CE7980F903708F052C08F77CD
:103560000E94E61341C00E5F1F4FFE01C49180E22E
:103570008C0F883048F4C7708E2D01C0880FCA9513
:10358000EAF70E94151D14C08C2F0E94C8122DC08E
:103590000E5F1F4FFE01C49180E28C0F883058F4FB
:1035A000C7708E2D01C0880FCA95EAF70E941B1DB7
:1035B0000E943E1D1AC08C2F0E94E61316C00E5F9B
:1035C0001F4FFE01C491CC2381F08FE99FE001974A
:1035D000F1F700C00000C150F6CF0E5F1F4FFE0193
:1035E000F49003C00E94C8128E018F2D882309F425
:1035F0009FCFEFE9FFE03197F1F700C00000815065
:10360000F5CFDF91CF911F910F91FF90EF9008952B
:1036100008950C94081B0E94091B60930502709387
:10362000060280930702909308020C9423170895D2
:103630000C940B1B0F931F9300910502109106022F
:103640002091070230910802602B712B822B932B63
:103650001F910F910C940B1B0F931F930091050268
:103660001091060220910702309108026023712315
:10367000822393231F910F910C940B1B0F931F9385
:103680000091050210910602209107023091080274
:1036900060277127822793271F910F910C940B1B92
:1036A00008950C94501B0E94511B6093010270936B
:1036B000020280930302909304020C94231760E0AB
:1036C00070E0CB010C94531B0F931F9341E050E02B
:1036D00060E070E08A019B0104C0000F111F221FEF
:1036E000331F8A95D2F7C901B8011F910F910C942D
:1036F000531B0F931F9341E050E060E070E004C063
:10370000440F551F661F771F8A95D2F780910102DB
:1037100090910202A0910302B09104028A019B01E0
:10372000082B192B2A2B3B2BC901B8011F910F9194
:103730000C94531B0F931F9341E050E060E070E046
:1037400004C0440F551F661F771F8A95D2F7409516
:103750005095609570958091010290910202A09120
:103760000302B09104028A019B01082319232A2332
:103770003B23C901B8011F910F910C94531B0F9368
:103780001F9341E050E060E070E004C0440F551F1B
:10379000661F771F8A95D2F78091010290910202ED
:1037A000A0910302B09104028A019B010827192706
:1037B0002A273B27C901B8011F910F910C94531B75
:1037C0000F931F93009101021091020220910302B6
:1037D00030910402602B712B822B932B1F910F9140
:1037E0000C94531B0F931F9300910102109102023E
:1037F00020910302309104026023712382239323DA
:103800001F910F910C94531B0F931F930091010272
:103810001091020220910302309104026027712767
:10382000822793271F910F910C94531B08952FE02B
:10383000929F800D1124A82FA695A695A695877016
:1038400051E001C0550F8A95EAF785E0A89FD001A5
:10385000112420E030E070E0F901EA0FFB1FE15392
:10386000FE4F4081CB01022E02C0969587950A94A7
:10387000E2F78170992781958427852384278083A7
:103880002F5F3F4F2530310539F708952FE0929F84
:10389000800D1124682F669566956695982F977010
:1038A00085E0689FB001112440E050E080E0FA011B
:1038B000E60FF71FE153FE4F208130E0092E02C0D2
:1038C000369527950A94E2F721703327042E01C01C
:1038D000220F0A94EAF7822B4F5F5F4F4530510564
:1038E00031F70895BF92CF92DF92EF92FF920F933C
:1038F0001F93CF93DF938C01C0900502D0900602F6
:10390000E0900702F090080280910102909102027B
:10391000A0910302B0910402C82AD92AEA2AFB2AFC
:10392000CFE1D0E0D701C6010C2E04C0B695A79513
:10393000979587950A94D2F780FF07C0BC2EB801EF
:103940008C2F0E94F506019719F4219758F7B12C96
:103950008B2DDF91CF911F910F91FF90EF90DF9012
:10396000CF90BF900895CF93DF93EC010E94721C1B
:10397000BE010E94F506DF91CF9108951F93CF936A
:10398000DF93EB0190919601992321F0CB010E94E6
:10399000B31C13C0882349F0CB010E94721C182F5E
:1039A000682FCE010E94171C04C0CB010E94461C48
:1039B000182FBE01812F0E94F506DF91CF911F9134
:1039C0000895809109028595859585950895809142
:1039D00009028770089590910902977081E009F4B7
:1039E00080E0089580912D02089590912D02892BF9
:1039F00080932D020895809590912D0289238093C4
:103A00002D02089510922D02089590912C02892B79
:103A100080932C020895809590912C0289238093A5
:103A20002C02089510922C02089590912B02892B5C
:103A300080932B020895809590912B028923809387
:103A40002B02089510922B02089580910A02089586
:103A500008950C94281D90910A02981721F08093E4
:103A60000A020C94291D089580910A02882329F0E6
:103A700010920A0280E00C94291D0895E091100133
:103A8000F091110180912D028083E0911001F0915D
:103A90001101908180912C02892B8083E09110018B
:103AA000F0911101908180912B02892B808380916C
:103AB0000A02882381F0E0911001F09111019081B8
:103AC000892B808380911001909111010E94311EF9
:103AD00081110E94341D80911001909111010C946C
:103AE000601108950C94711D98E0899F9001112434
:103AF000262B209309020E94791B8091090285954B
:103B0000859585950C94721D1092090280E00C94A5
:103B1000721D209109028095822380930902982FBB
:103B2000977079F430E0482F082E000C550B2417BD
:103B3000350739F08595859585950E949A1B0C94DB
:103B4000841D089580E090E00E94DF2B21E08D3EEF
:103B50009E4F09F020E0822F089582E090E00C94BF
:103B6000D12B682F82E090E00C94E52B83E090E06D
:103B70000C94D12B682F83E090E00C94E52B84E02B
:103B800090E00C94D12B682F84E090E00C94E52B0E
:103B900086E090E00C94D12B682F86E090E00C94A6
:103BA000E52BAB01BC018FE090E00C94F72BAB014F
:103BB000BC0183E190E00C94F72B60E070E0CB0156
:103BC0000C94D71D60E070E0CB010E94D11D0C94D5
:103BD000DD1D6DEE7EEF80E090E00E94032C60E042
:103BE00082E090E00E94E52B60E083E090E00E949C
:103BF000E52B109205021092060210920702109215
:103C0000080260E084E090E00E94E52B60E085E03F
:103C100090E00E94E52B60E086E090E00E94E52BBA
:103C20006FEF87E090E00E94E52B40E050E0BA01A2
:103C300088E090E00E94F72B60E08DE090E00E9429
:103C4000E52B40E050E0BA0188E190E00E94F72BBC
:103C500060E087E190E00E94E52B0C94E21D0C945B
:103C6000E91DFC01329680912201882331F0809178
:103C7000980287FF02C09EE101C096E080E091506B
:103C800028F021912223D9F38F5FF9CF08959C0169
:103C9000FC0132969FEF80E04191461789F09F3FEB
:103CA00019F4411101C0982F8F5F8630A9F79F3F0B
:103CB00039F0F901E90FF11D97FDFA956283089536
:103CC0000895FC01329608962081261301C01082C7
:103CD0003196E817F907C1F70895262F26952695FE
:103CE00026952E3168F4FC01E20FF11D677021E08A
:103CF00030E001C0220F6A95EAF78281282B2283E7
:103D00000895262F2695269526952E3170F4FC01D0
:103D1000E20FF11D677021E030E001C0220F6A95CB
:103D2000EAF7209582812823228308952091220199
:103D3000222329F02091980227FD0C946D1E0C94EB
:103D4000471E20912201222329F02091980227FD6D
:103D50000C94811E0C94611E20912201FC0132966C
:103D6000222331F08091980287FF02C08EE101C0CA
:103D700086E0DF011D928A95E9F7089508950C9475
:103D8000BE1E0E94BF1E80919F02843061F110927E
:103D90002F0220E488E190E00FB6F894A895809374
:103DA00060000FBE2093600080E00E94410480E02C
:103DB0000E94BA040E94BF1E83B7817F846083BFC4
:103DC00083B7816083BF7894889583B78E7F83BFE4
:103DD0000FB6F894A8958091600088618093600088
:103DE000109260000FBE089508950895CF930E9429
:103DF000F41E0E94DF090E94F51EC0E08C2F0E9475
:103E00008A09892B29F4CF5FC530C1F780E001C052
:103E100081E0CF91089508950C940B1F0E943D17E7
:103E20000E9460230E9454110E94BA040C940C1F3B
:103E30001F920F920FB60F9211248F939F93AF93FF
:103E4000BF9380912F02811113C0809194029091B1
:103E50009502A0919602B09197024196A11DB11DC5
:103E60008093940290939502A0939602B093970248
:103E7000BF91AF919F918F910F900FBE0F901F90A8
:103E8000189582E084BD93E095BD9AEF97BD80932D
:103E90006E0008952FB7F894809194029091950246
:103EA000A0919602B09197022FBF0895CF92DF9212
:103EB000EF92FF920F931F932FB7F89440919402C3
:103EC0005091950260919602709197022FBF6A01FE
:103ED0007B01EE24FF248C0120E030E0C016D106E7
:103EE000E206F30610F4415051099A01281B390BE0
:103EF000C9011F910F91FF90EF90DF90CF9008952F
:103F000078941F920F920FB60F9211248F939F9364
:103F1000AF93BF938091940290919502A0919602E5
:103F2000B09197020196A11DB11D809394029093C8
:103F30009502A0939602B0939702BF91AF919F9183
:103F40008F910F900FBE0F901F90189581E0809376
:103F5000E00080E28093D8001092C9008FE19EE4D7
:103F60000197F1F700C0000087E090EBDC0180933F
:103F7000A8029093A902A093AA02B093AB029CE07E
:103F800088E10FB6F894A895809360000FBE9093D7
:103F90006000FFCFAF92BF92CF92DF92EF92FF927D
:103FA0000F931F93CF93C0E0CC24C394D12CE82E61
:103FB000F12C8C2F0E948A095C0100E010E0960130
:103FC000002E02C0220F331F0A94E2F72A213B2160
:103FD000232B31F40F5F1F4F0F30110581F70AC0FB
:103FE000602F7C2F80E00E94DB06E816F90691F72F
:103FF00081E004C0CF5FC530E1F680E0CF911F9132
:104000000F91FF90EF90DF90CF90BF90AF90089509
:10401000CF93C82F8CE20E94CA1F882321F08C2FD7
:10402000CF910C94CA1F80E0CF910895CF930E9446
:10403000A21D811102C00E942F1EC5E6C15049F089
:104040000E94DF098FE39CE90197F1F700C00000AF
:10405000F5CF89E20E94082081110FC18AE20E94F7
:10406000082081110E942F1E85E00E9408208111E6
:104070000E94A61F0E94AD1D80932E0287E00E9421
:1040800008208823A9F18BE10E940820882351F0A1
:1040900080912E0281FB222720F991E0922790FB4C
:1040A00081F90EC08EE00E940820882361F0809183
:1040B0002E0282FB222720F991E0922790FB82F9C1
:1040C00080932E0215C080E10E94082090912E025C
:1040D000882341F093FB222720F981E0822780FB8F
:1040E00093F904C0892F809580FB90F990932E025C
:1040F00080912E020E94B11D0E94BF1D90E09093FE
:1041000099028093980280EE0E940820882341F053
:1041100080919802982F909590FB80F98093980257
:1041200089E30E940820882359F08091980281FB3E
:10413000222720F991E0922790FB81F98093980241
:1041400082EE0E940820882359F08091980282FB19
:10415000222720F991E0922790FB82F98093980220
:1041600086EE0E940820882359F08091980283FBF4
:10417000222720F991E0922790FB83F980939802FF
:1041800083EE0E940820882359F08091980284FBD6
:10419000222720F991E0922790FB84F980939802DE
:1041A00085E30E940820882359F08091980285FBBE
:1041B000222720F991E0922790FB85F980939802BD
:1041C00081E30E940820882359F08091980286FBA1
:1041D000222720F991E0922790FB86F9809398029C
:1041E00081E10E940820882359F08091980287FB82
:1041F000222720F991E0922790FB87F9809398027B
:10420000809198020E94C31D87E20E940820C82F57
:104210008EE10E9408208111C2608FE10E94082077
:104220008111C46080E20E9408208111C86081E28F
:104230000E9408208111C06182E20E940820811141
:10424000C06283E20E9408208111C06484E20E945F
:104250000820882311F0C06802C0CC2329F08C2FDD
:104260000E94BA1D6C2F03C00E94B61D682F70E01B
:1042700080E090E0CF910C94181BCF91089580912D
:10428000330280FF0BC06091150185E0689FB0018B
:10429000112475956795759567952BC081FF09C0A9
:1042A0006091150185E0689FB001112475956795AF
:1042B00020C082FF07C06091150185E0689FB001B2
:1042C000112417C0909132029923D1F0609114010A
:1042D000961788F72091150185E0289F90011124F9
:1042E000929FA001939F500D112470E0CA010E947B
:1042F0006E2B6038710540F46115710539F002C00C
:1043000065E070E0862F08958FE7089581E00895B5
:104310008091330280FF08C06091130170E07595B1
:1043200067957595679521C081FF06C0609113015F
:1043300070E07595679519C082FF04C06091130104
:1043400070E010C0909132029923C1F06091120187
:104350009617A0F780911301899FC001112470E086
:104360000E946E2B6038710528F46115710521F0EB
:10437000862F08958FE7089581E0089561E070E049
:10438000F4CF803F21F40E943F21819504C0813FFA
:1043900029F40E943F21809337020895823F21F43F
:1043A0000E943F21819504C0833F29F40E943F2150
:1043B000809336020895893F19F40E94882105C030
:1043C0008A3F31F40E9488218195809338020895B4
:1043D0008B3F21F40E948821819504C08C3F29F4F1
:1043E0000E948821809339020895843F21F48091AE
:1043F0003502816017C0853F21F4809135028260CB
:1044000011C0863F21F48091350284600BC0873F44
:1044100021F480913502886005C0883F31F4809195
:10442000350280618093350208958D3F21F480919B
:10443000330281600BC08E3F21F480913302826091
:1044400005C08F3F29F4809133028460809333024A
:104450000895803F39F48091370287FF6CC0109235
:10446000370269C0813F29F4809137021816BCF3E6
:1044700062C090913602823F29F497FF5CC010928F
:10448000360259C0833F19F41916CCF354C0893F42
:1044900041F48091380218160CF04DC01092380289
:1044A0004AC08A3F29F48091380287FF44C0F6CF82
:1044B0008B3F39F48091390287FF3DC01092390259
:1044C0003AC08C3F29F4809139021816BCF333C0EE
:1044D000843F21F4809135028E7F17C0853F21F4FF
:1044E000809135028D7F11C0863F21F48091350285
:1044F0008B7F0BC0873F21F480913502877F05C0F9
:10450000883F31F4809135028F7E8093350213C04D
:104510008D3F21F4809133028E7F0BC08E3F21F4BA
:10452000809133028D7F05C08F3F29F48091330243
:104530008B7F809333028091360281110EC080916F
:10454000370281110AC080913802811106C0809122
:104550003902811102C010923202089584E392E080
:104560000E947A110E944A1F909331028093300278
:1045700008951F93CF93DF93809130029091310281
:104580000E94561FAC0190913202992321F0209194
:10459000160130E006C0209117018AE0289F9001A3
:1045A00011244217530708F47BC080913602C09152
:1045B0003702D091380210913902811107C0C11120
:1045C0006BC0D11169C0111167C06AC09F3F19F05B
:1045D0009F5F90933202181624F40E943F2180932B
:1045E00036028091360287FF05C00E943F218195E7
:1045F000809336021C1624F40E943F2180933702D8
:104600008091370287FF05C00E943F2181958093EA
:104610003702309136023323E1F020913702222312
:10462000C1F045EB3403C0011124892F990F990B78
:10463000009709F481E08093360235EB2303C00133
:104640001124892F990F990B009709F481E0809329
:1046500037021D1624F40E9488218093380280912D
:10466000380287FF05C00E94882181958093380217
:10467000111624F40E948821809339028091390216
:1046800087FF05C00E948821819580933902DF91C0
:10469000CF911F910C94AE229F3F09F099CFA1CFEB
:1046A000DF91CF911F910895E4E3F2E086E0DF010E
:1046B0001D928A95E9F71092320210923302089502
:1046C0000E94A21D811102C00E942F1E0E94C81DBF
:1046D00080939A02282F269530E02630310524F069
:1046E00081708A6080939A0280919A0280FF02C052
:1046F000869501C080E00C94410420919A02822F9B
:104700008695482F50E04530510544F48F5F982F2F
:10471000990F822F8170892B80939A0280919A023F
:10472000816080939A020E94CC1D80919A028695A6
:104730000C94410480919A02982F969591F091588B
:10474000990F8170892B80939A028E7F91E009F4F2
:1047500090E080919A0290FB80F980939A020E94E7
:10476000CC1D80919A0286950C94410480919A0206
:1047700080FD11C0816080939A02813019F483E03A
:1047800080939A0280919A020E94CC1D80919A0295
:1047900086950C944104089580919A0280FF08C088
:1047A0008E7F80939A020E94CC1D80E00C9441047D
:1047B000089580919A0280FD0C94CC230C94B6232A
:1047C00090919A02892F86958F5F8F7791708630AE
:1047D00028F4880F892B80939A0202C090939A0242
:1047E00080919A028E7F91E009F490E080919A0284
:1047F00090FB80F980939A020E94CC1D80919A02CE
:1048000086950C944104863008F085E0880F9091DD
:104810009A029170892B80939A028E7F91E009F41D
:1048200090E080919A0290FB80F980939A020E9416
:10483000CC1D80919A0286950C94410480915A0275
:1048400008950F931F93CF93DF9300D01F92CDB79E
:10485000DEB78C010E949126823011F0843021F560
:1048600084E089831B830A8382E08093E9008FEFD1
:104870009091E800815095FD06C095ED9A95F1F76D
:1048800000008111F5CF8091E80085FF0DC040E068
:1048900050E063E070E0CE0101960E94AE26809168
:1048A000E8008E778093E8000F900F900F90DF91D3
:1048B000CF911F910F910895CF93DF9300D01F9256
:1048C000CDB7DEB720919F02243031F523E0298354
:1048D000805891099B838A8382E08093E9008FEF5F
:1048E0009091E800815095FD06C095ED9A95F1F7FD
:1048F00000008111F5CF8091E80085FF0DC040E0F8
:1049000050E063E070E0CE0101960E94AE268091F7
:10491000E8008E778093E8000F900F900F90DF9162
:10492000CF910895CF93DF93EC010E9491268230BE
:1049300011F08430F9F482E08093E9009FEF8091D8
:10494000E800915085FD06C085ED8A95F1F70000DD
:104950009111F5CF8091E80085FF0CC040E050E058
:1049600066E070E0CE010E94AE268091E8008E776E
:104970008093E800DF91CF910895CF93DF93EC010E
:104980000E949126823011F08430D9F58091220165
:10499000882339F08091980287FF03C060E282E0AB
:1049A00002C068E081E08093E9008FEF9091E80019
:1049B000815095FD06C095ED9A95F1F700008111A3
:1049C000F5CF8091E80085FF1CC080912201811104
:1049D00005C040E050E068E070E003C070E040E0F7
:1049E00050E0CE010E94AE268091E8008E77809341
:1049F000E80080E2FE01AAE3B2E001900D928A9500
:104A0000E1F7DF91CF91089580919E02811109C055
:104A10000E9443280E94A0288091E2008460809335
:104A2000E200089510929E020895089508950C944E
:104A30000E1F42E061EC81E00E94BD2742E261EC82
:104A400082E00C94BD278091A102833009F460C0FC
:104A500030F4813071F0823009F499C008958A30C1
:104A600009F485C08B3009F46BC0893009F0A7C008
:104A700020C08091A002813A09F0A1C08091E80095
:104A8000877F8093E8008091A4029091A502892BF2
:104A900021F460E28AE392E003C060E080E090E00D
:104AA00070E00E94F9268091E8008B778093E800FF
:104AB00008958091A002813209F081C08091A40202
:104AC0009091A502029708F07AC08091E800877F54
:104AD0008093E8008091E80082FD05C080919F02EC
:104AE0008111F8CF6CC02091F3008091F20090E02A
:104AF000922B029729F48091F1008B7F813021F471
:104B00008091F10080935A028091E8008B7753C026
:104B10008091A002813A09F052C08091A402909144
:104B2000A502892B09F04BC08091E800877F809314
:104B3000E8008091E80080FFFCCF8091220136C020
:104B40008091A0028132D9F58091A4029091A502B2
:104B5000892BA9F58091E800877F8093E8000E9467
:104B6000F2278091A202809322010C943D1780913C
:104B7000A002813221F58091E800877F8093E800D0
:104B80000E94F2278091A30280935B020895809196
:104B9000A002813AA1F48091E800877F8093E80029
:104BA0008091E80080FFFCCF80915B028093F10050
:104BB0008091E8008E778093E8000C94F2270895A6
:104BC00084B7877F84BF0FB6F894A8958091600062
:104BD000886180936000109260000FBE80E880932F
:104BE0006100109261000E94C2110E9443280E943D
:104BF000A0288091E20084608093E20078940E9473
:104C00002F2B0E94CA1188E191E00E944F118091E0
:104C10009F02853069F40E94C11E80919D02882305
:104C2000B1F30E94F61E882391F30E949826EFCFDD
:104C30000E94D6110E94D20FEACF0C941F26292F72
:104C4000332723303105C9F064F42130310581F078
:104C50002230310509F04CC08BE390E021EE35E0C5
:104C60004BC02132310521F12232310589F140C09A
:104C700082E190E02CE136E03FC099278130910538
:104C800071F02CF4892BA1F5EDEDF5E00DC082302B
:104C9000910541F0039761F5E9EBF5E005C0EBEC18
:104CA000F5E002C0EFEBF5E0849190E09F0124C0B5
:104CB0006115710541F061307105D1F489E090E032
:104CC0002CE036E019C089E090E023EF35E014C015
:104CD0006115710541F06130710551F480EC90E08F
:104CE0002EE236E009C080E490E02EEE36E004C00B
:104CF00080E090E020E030E0FA01318320830895E5
:104D00000895CF93C82F0E948026C0935C02CF9154
:104D1000089580919F02843011F081E0089582E02F
:104D2000089580915C02811102C00C948926089537
:104D300080E189BD82E189BD09B400FEFDCF80918B
:104D4000D8008F7D8093D8008091E00082608093AE
:104D5000E0008091E00081FDFCCF0895CF92DF92CA
:104D6000EF92FF920F931F93CF93DF93EC018B0190
:104D70006A010E941128811133C0C114D10439F095
:104D8000F60180819181081B190BC80FD91FE12CF6
:104D9000F12C0115110519F18091E80085FD16C06F
:104DA0008091E8008E778093E800C114D10449F027
:104DB000F60180819181E80EF91EF182E08285E0A2
:104DC0000FC00E941128882321F30AC08991809383
:104DD000F10001501109FFEFEF1AFF0ADACF80E06E
:104DE000DF91CF911F910F91FF90EF90DF90CF90C7
:104DF00008952091A6023091A7022617370748F0A0
:104E00006115710539F42091E8002E772093E800B0
:104E100001C0B90140E061157105A9F120919F021F
:104E2000222309F443C0253009F442C02091E80050
:104E300023FD40C02091E80022FD32C02091E8000F
:104E400020FFE9CF4091F3002091F20030E0342BB5
:104E5000FC01CF016115710559F02830310540F48E
:104E600081918093F100615071092F5F3F4FF1CF25
:104E700041E02830310509F040E02091E8002E772C
:104E80002093E800C8CF4111C9CF0AC080919F028A
:104E9000882361F0853061F08091E80083FD0AC0CD
:104EA0008091E80082FFF2CF80E0089582E00895CB
:104EB00083E0089581E008952091A6023091A70231
:104EC0002617370748F06115710539F42091E8007D
:104ED0002E772093E80001C0B901FC0120E06115A4
:104EE000710591F180919F02882309F440C08530BB
:104EF00009F43FC08091E80083FD3DC08091E80047
:104F000082FD2FC08091E80080FFE9CF2091F3005F
:104F10008091F20090E0922B6115710559F0883074
:104F2000910540F424912093F1003196615071096C
:104F30000196F2CF21E0089709F020E08091E80087
:104F40008E778093E800CBCF2111CCCF0AC080911F
:104F50009F02882361F0853061F08091E80083FD35
:104F60000AC08091E80082FFF2CF80E0089582E0DD
:104F7000089583E0089581E00895982F973058F5BB
:104F80009093E900981739F07091EC002091ED00B2
:104F90005091F00003C0242F762F50E021FF19C05C
:104FA0003091EB003E7F3093EB003091ED003D7F80
:104FB0003093ED003091EB0031603093EB00709353
:104FC000EC002093ED005093F0002091EE0027FFBD
:104FD00007C09F5FD3CF8F708093E90081E0089571
:104FE00080E008958091A00287FF11C08091E800C1
:104FF00082FD05C080919F028111F8CF11C0809180
:10500000E8008B770BC080919F02882349F0809144
:10501000E80080FFF8CF8091E8008E778093E80069
:1050200008952091E4003091E50095E64091EC0070
:10503000842F817040FF22C08091E80080FD1CC059
:1050400080919F02882391F0853091F08091EB0050
:1050500085FD10C04091E4005091E50042175307D0
:1050600029F39A01915011F784E0089582E00895A0
:1050700083E0089581E0089580E008954091E8007C
:1050800042FFDECF08950E94B1280E94B928E0EEC9
:10509000F0E0808181608083E8EDF0E080818F77AF
:1050A000808319BCA7EDB0E08C918E7F8C938081BA
:1050B0008F7E808310929E0208950F931F93CF934B
:1050C000DF930E94B1280E94B928C8EDD0E0888102
:1050D0008F77888388818068888388818F7D8883A3
:1050E00019BC10929F0210929B0210929D02109286
:1050F0009C0200EE10E0F80180818B7F8083888124
:105100008160888342E060E080E00E94BD27E1EE9C
:10511000F0E080818E7F8083E2EEF0E0808181602C
:105120008083808188608083F80180818E7F808386
:10513000888180618883DF91CF911F910F910895BD
:10514000E8EDF0E080818F7E8083E7EDF0E0808104
:105150008160808384E082BF81E080939E020C9412
:105160005D28E8EDF0E080818E7F80831092E20080
:1051700008951092DA001092E10008951F920F92A4
:105180000FB60F9211242F933F934F935F936F931A
:105190007F938F939F93AF93BF93EF93FF938091F0
:1051A000E10082FF0BC08091E20082FF07C0809186
:1051B000E1008B7F8093E1000E942E2B8091DA002A
:1051C00080FF1FC08091D80080FF1BC08091DA0053
:1051D0008E7F8093DA008091D90080FF0DC080E13E
:1051E00089BD82E189BD09B400FEFDCF81E08093D5
:1051F0009F020E94042505C019BC10929F020E94C4
:1052000012258091E10080FF19C08091E20080FFAB
:1052100015C08091E2008E7F8093E2008091E200D1
:1052200080618093E2008091D80080628093D800F2
:1052300019BC85E080939F020E9416258091E100B1
:1052400084FF30C08091E20084FF2CC080E189BDE2
:1052500082E189BD09B400FEFDCF8091D8008F7D29
:105260008093D8008091E1008F7E8093E10080914F
:10527000E2008F7E8093E2008091E2008160809363
:10528000E20080919B02882311F084E007C08091A6
:10529000E30087FD02C081E001C083E080939F02AC
:1052A0000E9417258091E10083FF29C08091E200D0
:1052B00083FF25C08091E100877F8093E10082E039
:1052C00080939F0210929B028091E1008E7F8093D9
:1052D000E1008091E2008E7F8093E2008091E20005
:1052E00080618093E20042E060E080E00E94BD27A0
:1052F0008091F00088608093F0000E941525FF9156
:10530000EF91BF91AF919F918F917F916F915F913D
:105310004F913F912F910F900FBE0F901F901895B6
:105320001F920F920FB60F9211242F933F934F931A
:105330005F936F937F938F939F93AF93BF93CF931D
:10534000DF93EF93FF93C091E900CF708091EC0061
:10535000D82FD17080FDD0E81092E9008091F00044
:10536000877F8093F00078940E94D4291092E900FE
:105370008091F00088608093F000CD2BCF70C093B7
:10538000E900FF91EF91DF91CF91BF91AF919F9194
:105390008F917F916F915F914F913F912F910F90DE
:1053A0000FBE0F901F9018951F93CF93DF93CDB72B
:1053B000DEB7AA970FB6F894DEBF0FBECDBFE0EA06
:1053C000F2E088E08E0F9091F10091938E13FBCF65
:1053D0000E9423258091E80083FF28C18091A002CC
:1053E0009091A102492F50E04A30510508F01EC1AA
:1053F000FA01E556FF4F0C94A42B803821F0823837
:1054000009F014C108C080919C0290919D029923DB
:1054100089F082600FC08091A4028F70873008F0FD
:1054200005C18093E9008091EB0085FB882780F916
:105430001092E9009091E800977F9093E8008093A4
:10544000F1001092F100D0C0282F2D7F09F0EEC09E
:10545000882319F0823061F0E9C08091A202813086
:1054600009F0E4C0933009F080E080939D022EC0E3
:105470008091A20281112AC08091A4028F702FEF27
:10548000280F263008F0D2C08093E9002091EB006D
:1054900020FF1CC0933021F48091EB00806214C087
:1054A0009091EB0090619093EB0021E030E0A90136
:1054B00002C0440F551F8A95E2F74093EA0010920C
:1054C000EA008091EB0088608093EB001092E90085
:1054D0008091E800877F8093E8000E94F227A6C0B1
:1054E0008111A4C01091A2021F778091E3008078FF
:1054F000812B8093E3008091E800877F8093E80010
:105500000E94F2278091E80080FFFCCF8091E300A9
:1055100080688093E300111102C082E001C083E043
:1055200080939F0283C08058823008F07FC08091B2
:10553000A2029091A3028C3D53E0950779F583E098
:105540008A838AE289834FB7F894DE01139620E0BC
:105550003EE051E2E32FF0E050935700E49120FF4A
:1055600003C0E295EF703F5FEF708E2F90E0EA305E
:1055700010F0C79601C0C0968D939D932F5F243184
:1055800049F74FBF8091E800877F8093E8006AE287
:1055900070E0CE0101960E94F92615C06091A40228
:1055A0007091A502AE014F5F5F4F0E941D26BC01A6
:1055B000892BE1F19091E800977F9093E800898131
:1055C0009A810E945C278091E8008B778093E800A5
:1055D0002DC0803859F58091E800877F8093E800DE
:1055E00080919B028093F1008091E8008E7773CFC9
:1055F00081111CC09091A2029230C0F48091E80009
:10560000877F8093E80090939B020E94F22780910D
:105610009B02811106C08091E30087FD02C081E0FA
:1056200001C084E080939F020E9419258091E800C8
:1056300083FF0AC08091E800877F8093E800809113
:10564000EB0080628093EB00AA960FB6F894DEBF61
:105650000FBECDBFDF91CF911F9108950895CF93D5
:1056600080919F028823A1F0C091E900CF709091B2
:10567000EC00892F817090FD80E8C82B1092E90022
:105680008091E80083FD0E94D429CF70C093E90087
:10569000CF910895DB018F939F930E94B92BBF9107
:1056A000AF91A29F800D911DA39F900DB29F900D71
:1056B00011240895AA1BBB1B51E107C0AA1FBB1FE1
:1056C000A617B70710F0A61BB70B881F991F5A958E
:1056D000A9F780959095BC01CD01089597FB072E01
:1056E00016F4009407D077FD09D00E945A2B07FCCE
:1056F00005D03EF4909581959F4F089570956195E2
:105700007F4F0895A1E21A2EAA1BBB1BFD010DC0FD
:10571000AA1FBB1FEE1FFF1FA217B307E407F50761
:1057200020F0A21BB30BE40BF50B661F771F881F3D
:10573000991F1A9469F760957095809590959B01D3
:10574000AC01BD01CF010895EE0FFF1F0590F4914C
:10575000E02D0994A29FB001B39FC001A39F700DDB
:10576000811D1124911DB29F700D811D1124911D69
:1057700008950E94AA2BA59F900DB49F900DA49F01
:10578000800D911D11240895FC014150504030F0CE
:1057900001900616D1F73197CF01089588279927F0
:1057A0000895F999FECF92BD81BDF89A992780B5E9
:1057B0000895A6E1B0E044E050E00C940B2CA8E181
:1057C000B0E042E050E00C940B2C262FF999FECF6C
:1057D00092BD81BDF89A019700B4021639F01FBA44
:1057E00020BD0FB6F894FA9AF99A0FBE0895039661
:1057F000272F0E94E62B0E94E52B252F0E94E62BE7
:10580000242F0C94E62B0196272F0E94E62B0C9454
:10581000E52BDC01CB01FC01F999FECF06C0F2BDFE
:10582000E1BDF89A319600B40D9241505040B8F75E
:065830000895F894FFCF7B
:10583600010210101001191A1B1C1D1E1F20212207
:105846000B022808140A321E1E24BD2492245C244E
:10585600212401F0F1C667663794313035349796C6
:1058660033F4909192939500010202020206060615
:105876000909090909090F0F0F0F0F0F151515183B
:0C588600191919191919191919192324D5
:00000001FF
